{
  "_format": "hh-sol-artifact-1",
  "contractName": "Transactions",
  "sourceName": "contracts/Transactions.sol",
  "abi": [
    {
      "inputs": [],
      "name": "add",
      "outputs": [
        {
          "internalType": "uint256",
          "name": "",
          "type": "uint256"
        }
      ],
      "stateMutability": "view",
      "type": "function"
    },
    {
      "inputs": [
        {
          "internalType": "uint256",
          "name": "x",
          "type": "uint256"
        }
      ],
      "name": "firstNoSet",
      "outputs": [],
      "stateMutability": "nonpayable",
      "type": "function"
    },
    {
      "inputs": [
        {
          "internalType": "uint256",
          "name": "y",
          "type": "uint256"
        }
      ],
      "name": "secondNoSet",
      "outputs": [],
      "stateMutability": "nonpayable",
      "type": "function"
    },
    {
      "inputs": [
        {
          "internalType": "uint256",
          "name": "x",
          "type": "uint256"
        }
      ],
      "name": "thirdNoSet",
      "outputs": [],
      "stateMutability": "nonpayable",
      "type": "function"
    }
  ],
  "bytecode": "0x608060405234801561001057600080fd5b50610257806100206000396000f3fe608060405234801561001057600080fd5b506004361061004c5760003560e01c80634f2be91f1461005157806371050a821461006f578063c6f3ba5a1461008b578063f91b539a146100a7575b600080fd5b6100596100c3565b6040516100669190610123565b60405180910390f35b6100896004803603810190610084919061016f565b6100ec565b005b6100a560048036038101906100a0919061016f565b6100f6565b005b6100c160048036038101906100bc919061016f565b610100565b005b6000806003546002546001546100d991906101cb565b6100e391906101cb565b90508091505090565b8060018190555050565b8060038190555050565b8060028190555050565b6000819050919050565b61011d8161010a565b82525050565b60006020820190506101386000830184610114565b92915050565b600080fd5b61014c8161010a565b811461015757600080fd5b50565b60008135905061016981610143565b92915050565b6000602082840312156101855761018461013e565b5b60006101938482850161015a565b91505092915050565b7f4e487b7100000000000000000000000000000000000000000000000000000000600052601160045260246000fd5b60006101d68261010a565b91506101e18361010a565b9250827fffffffffffffffffffffffffffffffffffffffffffffffffffffffffffffffff038211156102165761021561019c565b5b82820190509291505056fea2646970667358221220b278a698118ae286eb0e1432b4b264a23826ba4cad8f246f122b90dd3baa109364736f6c634300080d0033",
  "linkReferences": {},
  "deployedLinkReferences": {}
}