{
    "_format": "hh-sol-artifact-1",
    "contractName": "Transactions",
    "sourceName": "contracts/Transactions.sol",
    "abi": [
        {
            "anonymous": false,
            "inputs": [
                {
                    "indexed": false,
                    "internalType": "address",
                    "name": "_from",
                    "type": "address"
                },
                {
                    "indexed": false,
                    "internalType": "address",
                    "name": "_receiver",
                    "type": "address"
                },
                {
                    "indexed": false,
                    "internalType": "uint256",
                    "name": "__amount",
                    "type": "uint256"
                },
                {
                    "indexed": false,
                    "internalType": "string",
                    "name": "_message",
                    "type": "string"
                },
                {
                    "indexed": false,
                    "internalType": "uint256",
                    "name": "_timestamp",
                    "type": "uint256"
                },
                {
                    "indexed": false,
                    "internalType": "string",
                    "name": "_keyword",
                    "type": "string"
                }
            ],
            "name": "Transfer",
            "type": "event"
        },
        {
            "inputs": [
                {
                    "internalType": "address payable",
                    "name": "receiver",
                    "type": "address"
                },
                {
                    "internalType": "uint256",
                    "name": "amount",
                    "type": "uint256"
                },
                {
                    "internalType": "string",
                    "name": "message",
                    "type": "string"
                },
                {
                    "internalType": "string",
                    "name": "keyword",
                    "type": "string"
                }
            ],
            "name": "addToBlockchain",
            "outputs": [],
            "stateMutability": "nonpayable",
            "type": "function"
        },
        {
            "inputs": [],
            "name": "getAllTransactions",
            "outputs": [
                {
                    "components": [
                        {
                            "internalType": "address",
                            "name": "sender",
                            "type": "address"
                        },
                        {
                            "internalType": "address",
                            "name": "receiver",
                            "type": "address"
                        },
                        {
                            "internalType": "uint256",
                            "name": "amount",
                            "type": "uint256"
                        },
                        {
                            "internalType": "string",
                            "name": "message",
                            "type": "string"
                        },
                        {
                            "internalType": "uint256",
                            "name": "timestamp",
                            "type": "uint256"
                        },
                        {
                            "internalType": "string",
                            "name": "keyword",
                            "type": "string"
                        }
                    ],
                    "internalType": "struct Transactions.TransferStruct[]",
                    "name": "",
                    "type": "tuple[]"
                }
            ],
            "stateMutability": "view",
            "type": "function"
        },
        {
            "inputs": [],
            "name": "getTransactionsCount",
            "outputs": [
                {
                    "internalType": "uint256",
                    "name": "",
                    "type": "uint256"
                }
            ],
            "stateMutability": "view",
            "type": "function"
        }
    ],
    "bytecode": "0x608060405234801561001057600080fd5b50610a6c806100206000396000f3fe608060405234801561001057600080fd5b50600436106100415760003560e01c806327506f5314610046578063578cb8f914610064578063cc2d7ead14610082575b600080fd5b61004e61009e565b60405161005b9190610457565b60405180910390f35b61006c6100a3565b6040516100799190610488565b60405180910390f35b61009c60048036038101906100979190610656565b6100a8565b005b606090565b600090565b60016000808282546100ba9190610724565b9250508190555060016040518060c001604052803373ffffffffffffffffffffffffffffffffffffffff1681526020018673ffffffffffffffffffffffffffffffffffffffff16815260200185815260200184815260200142815260200183815250908060018154018082558091505060019003906000526020600020906006020160009091909190915060008201518160000160006101000a81548173ffffffffffffffffffffffffffffffffffffffff021916908373ffffffffffffffffffffffffffffffffffffffff16021790555060208201518160010160006101000a81548173ffffffffffffffffffffffffffffffffffffffff021916908373ffffffffffffffffffffffffffffffffffffffff1602179055506040820151816002015560608201518160030190816101f29190610964565b506080820151816004015560a08201518160050190816102129190610964565b50505050505050565b600081519050919050565b600082825260208201905092915050565b6000819050602082019050919050565b600073ffffffffffffffffffffffffffffffffffffffff82169050919050565b600061027282610247565b9050919050565b61028281610267565b82525050565b6000819050919050565b61029b81610288565b82525050565b600081519050919050565b600082825260208201905092915050565b60005b838110156102db5780820151818401526020810190506102c0565b60008484015250505050565b6000601f19601f8301169050919050565b6000610303826102a1565b61030d81856102ac565b935061031d8185602086016102bd565b610326816102e7565b840191505092915050565b600060c0830160008301516103496000860182610279565b50602083015161035c6020860182610279565b50604083015161036f6040860182610292565b506060830151848203606086015261038782826102f8565b915050608083015161039c6080860182610292565b5060a083015184820360a08601526103b482826102f8565b9150508091505092915050565b60006103cd8383610331565b905092915050565b6000602082019050919050565b60006103ed8261021b565b6103f78185610226565b93508360208202850161040985610237565b8060005b85811015610445578484038952815161042685826103c1565b9450610431836103d5565b925060208a0199505060018101905061040d565b50829750879550505050505092915050565b6000602082019050818103600083015261047181846103e2565b905092915050565b61048281610288565b82525050565b600060208201905061049d6000830184610479565b92915050565b6000604051905090565b600080fd5b600080fd5b60006104c282610247565b9050919050565b6104d2816104b7565b81146104dd57600080fd5b50565b6000813590506104ef816104c9565b92915050565b6104fe81610288565b811461050957600080fd5b50565b60008135905061051b816104f5565b92915050565b600080fd5b600080fd5b7f4e487b7100000000000000000000000000000000000000000000000000000000600052604160045260246000fd5b610563826102e7565b810181811067ffffffffffffffff821117156105825761058161052b565b5b80604052505050565b60006105956104a3565b90506105a1828261055a565b919050565b600067ffffffffffffffff8211156105c1576105c061052b565b5b6105ca826102e7565b9050602081019050919050565b82818337600083830152505050565b60006105f96105f4846105a6565b61058b565b90508281526020810184848401111561061557610614610526565b5b6106208482856105d7565b509392505050565b600082601f83011261063d5761063c610521565b5b813561064d8482602086016105e6565b91505092915050565b600080600080608085870312156106705761066f6104ad565b5b600061067e878288016104e0565b945050602061068f8782880161050c565b935050604085013567ffffffffffffffff8111156106b0576106af6104b2565b5b6106bc87828801610628565b925050606085013567ffffffffffffffff8111156106dd576106dc6104b2565b5b6106e987828801610628565b91505092959194509250565b7f4e487b7100000000000000000000000000000000000000000000000000000000600052601160045260246000fd5b600061072f82610288565b915061073a83610288565b9250828201905080821115610752576107516106f5565b5b92915050565b7f4e487b7100000000000000000000000000000000000000000000000000000000600052602260045260246000fd5b6000600282049050600182168061079f57607f821691505b6020821081036107b2576107b1610758565b5b50919050565b60008190508160005260206000209050919050565b60006020601f8301049050919050565b600082821b905092915050565b60006008830261081a7fffffffffffffffffffffffffffffffffffffffffffffffffffffffffffffffff826107dd565b61082486836107dd565b95508019841693508086168417925050509392505050565b6000819050919050565b600061086161085c61085784610288565b61083c565b610288565b9050919050565b6000819050919050565b61087b83610846565b61088f61088782610868565b8484546107ea565b825550505050565b600090565b6108a4610897565b6108af818484610872565b505050565b5b818110156108d3576108c860008261089c565b6001810190506108b5565b5050565b601f821115610918576108e9816107b8565b6108f2846107cd565b81016020851015610901578190505b61091561090d856107cd565b8301826108b4565b50505b505050565b600082821c905092915050565b600061093b6000198460080261091d565b1980831691505092915050565b6000610954838361092a565b9150826002028217905092915050565b61096d826102a1565b67ffffffffffffffff8111156109865761098561052b565b5b6109908254610787565b61099b8282856108d7565b600060209050601f8311600181146109ce57600084156109bc578287015190505b6109c68582610948565b865550610a2e565b601f1984166109dc866107b8565b60005b82811015610a04578489015182556001820191506020850194506020810190506109df565b86831015610a215784890151610a1d601f89168261092a565b8355505b6001600288020188555050505b50505050505056fea2646970667358221220cb5488afc6eafb222b0c1bf4ec02e67377ad79b6faee377b49c6dff5179be12e64736f6c63430008110033",
    "linkReferences": {},
    "deployedLinkReferences": {}
}